:020000040800F2
:10000000784701209D0100084D1D0008E1120008FD
:10001000D9190008C30C0008E32D000800000000F7
:100020000000000000000000000000009120000817
:100030000510000800000000DD1D00082D2200084A
:10004000B7010008B7010008B7010008B7010008B0
:10005000B7010008B701000809100008B70100083F
:1000600049100008B7010008B7010008B7010008EF
:10007000B7010008B7010008B7010008B701000880
:10008000B7010008B7010008B7010008B701000870
:10009000B7010008B7010008B7010008BD1000084B
:1000A000B7010008B7010008B7010008B701000850
:1000B000B7010008B7010008B7010008B701000840
:1000C000B7010008B7010008B7010008B701000830
:1000D000B70100083D2B0008B7010008C52B000838
:1000E000B7010008B7010008B7010008B701000810
:1000F000B7010008B7010008B7010008B701000800
:10010000B7010008B7010008B7010008B7010008EF
:10011000B7010008B7010008B7010008B7010008DF
:10012000C90C0008B7010008B7010008B7010008B2
:10013000B7010008B7010008B7010008B7010008BF
:10014000B7010008B7010008B7010008B7010008AF
:10015000B7010008B7010008B7010008B70100089F
:10016000B7010008B7010008B7010008B70100088F
:10017000B7010008B7010008B7010008B70100087F
:10018000B7010008B7010008DFF80CD000F0E8FA6A
:1001900000480047FD37000878470120064880479F
:1001A00006480047FEE7FEE7FEE7FEE7FEE7FEE75C
:1001B000FEE7FEE7FEE7FEE73122000889010008BE
:1001C0000EB540F2334102910021CDE900110A46FB
:1001D0000B4600F0BEF803B000BD00F0004230F066
:1001E00000400AD0C10D01F56071C0F3160042EA6B
:1001F0000151C20840071143704700200146704773
:1002000001F0004330B421F0004150EA010206D071
:100210000A0DA2F56072C1F31301002A02DC30BCA2
:1002200000207047440F44EAC104C100E01830BC0C
:1002300000EBC25000F047B830B50B460146002035
:100240002022012409E021FA02F59D4205D303FA98
:1002500002F5491B04FA02F52844151EA2F1010219
:10026000F1DC30BD2DE9F05F0546002092469B464B
:1002700088460646814640241BE0284641464746BC
:10028000224600F08EFA53465A46C01A914110D3C6
:1002900011461846224600F075FA2D1A67EB010840
:1002A0004F4622460120002100F06CFA17EB0009AE
:1002B0004E41201EA4F10104DFDC484631462A46A7
:1002C0004346BDE8F09F0029A8BF7047401C490085
:1002D00008BF20F00100704710B4B0FA80FC00FAAB
:1002E0000CF050EA010404BF10BC704749B1CCF1D6
:1002F000200421FA04F411FA0CF118BF0121214362
:100300000843A3EB0C01CB1D4FEA00614FEA10201C
:1003100042BF002010BC704700EBC35010440029BE
:10032000A4BF10BC7047401C490008BF20F001006A
:1003300010BC704710B5141E73F1000408DA401C9D
:1003400041F1000192185B411A4301D120F00100F4
:1003500010BD2DE9F04D92469B4611B1B1FA81F2E4
:1003600002E0B0FA80F22032904600F00BFA044628
:100370000F4640EA0A0041EA0B0153465A46084339
:1003800013D0114653EA010019D0C8F1400250467B
:1003900000F007FA05460E4650465946424600F020
:1003A000F1F9084305D0012004E020463946BDE8B4
:1003B000F08D0020054346EAE0762C4337430A9847
:1003C0006305E40AA0EB08000022FD0A44EA475452
:1003D0000A3002D500200146E9E7010510196941FC
:1003E000DDE9084500196941BDE8F04DA2E72DE9B6
:1003F000FE4F804681EA0300C00F0C46009021F0BA
:10040000004123F00045B8EB0200A94105D2404667
:10041000214690461C460B46024623F000401043FE
:1004200047D0270DC7F30A00C3F30A510290401AC0
:10043000019040286BDAC3F3130040F4801B00984E
:10044000924620B10023D2EB030A63EB0B0B019819
:100450005946C0F14002504600F094F906460D4658
:1004600050465946019A00F0ACF910EB0800614182
:10047000002487EA115284EAE7731A4340D0009AB5
:1004800062B3019A012A4FEA075215DC001B61EBA7
:1004900002014FF0004202EA0752CDE90042001C7F
:1004A00041F5801132462B46FFF753FF03B0BDE8FC
:1004B000F08F40462146F9E7001B61EB0201001C6A
:1004C00041F5801300185B412018A2F5001747EB97
:1004D000030140EAD570B6196D4111E06D084FEA8D
:1004E000360645EAC0754FEA0752001B61EB020170
:1004F000001C41F5801149084FEA300000195141B4
:1005000032462B4603B0BDE8F04FFFF713BF00980B
:10051000012240000023D0EB020263EBE07300985D
:1005200021464FEAE074B8EB000061EB0401E9E713
:1005300083F000435BE781F0004158E72DE9FE4F6F
:1005400081EA030404F0004421F0004100944FF0DC
:10055000000B23F0004350EA01045ED052EA03048A
:100560005BD0C3F30A54C1F30A552C44A4F2F3340C
:100570000194A0FB0254C1F3130141F48011C3F3B1
:10058000130343F4801301FB024400FB034E840A6F
:10059000970A44EA815447EA8357A4FB0768029507
:1005A0008D0A05FB07854FEA932C04FB0C542705A5
:1005B000029D4FEA065847EA1637B5EB08056EEB81
:1005C000070C870E920E47EA811742EA8312A7FBB7
:1005D0000201B6EB0B0164EB00042B0D43EA0C3374
:1005E0005E1844EB1C50DA465146E7FB0201C5F3A6
:1005F00013044FEA0B3343EA14534FEA0432019CCD
:1006000043EA0603A4F10C040294009CCDE900B473
:10061000FFF79FFE03B0BDE8F08F00200146F9E729
:100620002DE9F04D81EA030404F0004B21F0004570
:1006300014464FF0000A23F0004150EA050220D092
:1006400054EA01021DD0C5F30A570246C5F313034D
:10065000C1F31300C1F30A5640F4801543F480132C
:10066000A7EB0608101BD64608F2FD3873EB050011
:1006700002D308F1010801E092185B41B8F1000FC4
:1006800003DA00200146BDE8F08D00204FF4801110
:10069000064684460EE0171B73EB050705D3121BB5
:1006A00063EB050306434CEA010C49084FEA3000AE
:1006B00092185B4150EA0107EDD152EA030012D0D3
:1006C00082EA040083EA0501084305D0101BAB4110
:1006D00006D20122002306E000224FF0004302E090
:1006E0006FF0010253101AEB06004CEB085110EBAF
:1006F0000A0041EB0B01BDE8F04DFFF71BBEC1F353
:100700000A52C1F3130140F2FF3341F480119A42BF
:1007100002DA00200146704740F233439A42A2F2C7
:10072000334202DC524200F03CB800F02BB800002B
:1007300030B5041E71F1000404DB4FF00044404268
:1007400064EB0101141E73F1000405DB1C464FF03D
:100750000043524263EB0403994208BF904230BD0C
:10076000064C074D06E0E06840F0010394E80700FE
:1007700098471034AC42F6D3FFF70AFD184C000836
:10078000384C0008202A04DB203A00FA02F100204D
:1007900070479140C2F1200320FA03F319439040BF
:1007A0007047202A04DB203A21FA02F0002170472A
:1007B00021FA02F3D040C2F12002914008431946C9
:1007C0007047202A06DBCB17203A41FA02F043EAB1
:1007D000E07306E041FA02F3D040C2F120029140FA
:1007E00008431946704770B58C1810F8015B15F076
:1007F000070301D110F8013B2A1106D110F8012B93
:1008000003E010F8016B01F8016B5B1EF9D12B07B7
:1008100005D40023521E0DD401F8013BFAE710F86D
:10082000013BCB1A921C03E013F8015B01F8015B5A
:10083000521EF9D5A142D8D3002070BD00B58DB0AD
:100840000121084601F0CCFA0121480201F0D8FA52
:1008500001200B9003208DF8300000208DF833002C
:100860000BA9154800F0B4FC0121480201F0D8FAA8
:1008700000214FF4007001F0D3FA002007900A9095
:1008800009904FF48030089007A800F025F8002068
:1008900001908DF808008DF8090003900590012063
:1008A0008DF8180001A9054800F080F901210348DE
:1008B00000F006F80DB000BD00000240002101402C
:1008C00021B1826842F00102826003E0826822F076
:1008D00001028260704700000021084A1168084A3E
:1008E0001140D0E900231A4383681A43C3681A43AE
:1008F0001143044AC2F80413704700000423014066
:10090000E030FCFF0020014021B1826842F4807297
:10091000826003E0826822F4807282607047000087
:1009200010B50021054801F0FFFC00210448FFF745
:10093000EBFF00210348FFF7E7FF10BD0000014077
:10094000002001400022014000B59DB00121714806
:1009500001F046FA01214FF4A06001F051FA6E480F
:1009600000F028FA4FF0806004906C4805906C48C5
:100970000690002007904FF4006008900020099036
:100980004FF480600A9040000B900C90C0100D90C6
:1009900040020E9000200F90032010900020119034
:1009A000129004A95C4800F001FB01215A4800F0B4
:1009B000F5F95948183800F0FDF90020049059481D
:1009C000059059480690002007904FF40060089069
:1009D000002009904FF480600A9040000B900C902A
:1009E000C0100D9040020E9000200F900320109038
:1009F00000201190129010214748183800F0B4F9E7
:100A0000012210214448183800F0B2FA04A94248E3
:100A1000183800F0CBFA01213F48183800F0BEF931
:100A200038208DF8040000208DF805008DF80600B0
:100A300001208DF8070001A801F08AF90220029038
:100A400003208DF80C0000208DF80F0002A9374814
:100A500000F0BEFB0820029003208DF80C0000205F
:100A60008DF80F0002A9314800F0B2FB002013906E
:100A700016901590149013A8FFF72EFF00201790E2
:100A80008DF860008DF861004FF0805019900020C3
:100A90001A901B9001208DF8700017A921484C383E
:100AA00000F084F80023012211461E484C3800F063
:100AB000A7F801211B484C38FFF726FF01211948F0
:100AC0004C38FFF7FDFE002017908DF860008DF880
:100AD00061004FF08050199000201A901B90012067
:100AE0008DF8700017A90D484C3800F05FF800230E
:100AF0000122032109484C3800F082F801210748FF
:100B00004C38FFF701FF012104484C38FFF7D8FEAD
:100B10001DB000BD01004000286402404C2201408D
:100B20002C3401204C2001402C24012000000240E4
:100B30000146C86C80B270470246002013680B4023
:100B40000BB1012000E0002070472DE9F041ADF528
:100B5000487D80460E461446002506E0404600F0DB
:100B6000A7FB2DF81500681C85B2B542F6DB4FF4E3
:100B7000C871684601F024FB204604EBD071C1F334
:100B80004F0504E03DF815000744681C85B204EBEE
:100B9000D471A6EB6101A942F4DC301BB7FBF0F77E
:100BA000B8B20DF5487DBDE8F081000030B50246D1
:100BB000002000235068104C20400D790C6844EA56
:100BC00005242043506090680C4C2040D1E9035428
:100BD0002C438D682C434D7944EA450420439060B2
:100BE000D06A20F470000C7D641EE4B2234340EA16
:100BF0000350D06230BD0000FFFEFFFCFDF7FFC0D8
:100C0000F0B504460D4600200021092D11DDE068F5
:100C1000A5F10A0606EB4607072606FA07F1884300
:100C2000A5F10A0606EB460603FA06F10843E06062
:100C30000CE0206905EB4507072606FA07F1884313
:100C400005EB450603FA06F108432061072A0FDA8F
:100C5000606B561E06EB86071F2606FA07F18843CF
:100C6000561E06EB860605FA06F10843606322E08D
:100C70000D2A0FDA206BD61F06EB86071F2606FA11
:100C800007F18843D61F06EB860605FA06F10843EE
:100C9000206310E0E06AA2F10D0606EB86071F262E
:100CA00006FA07F18843A2F10D0606EB860605FA5F
:100CB00006F10843E062F0BD816841F08041816047
:100CC000704700BFFEE7000010B51F491F4800F045
:100CD0001DF9B8B3FFF724FE002429E01C4830F8C2
:100CE000140000EE100AB8EE400A1A4901EBC400E5
:100CF00080ED000A9FED180A6000401C01EB8000A7
:100D000080ED000A154830F8140000EE100AB8EE25
:100D1000400A134901EBC40080ED000A9FED0E0A62
:100D20006000401C01EB800080ED000A601C84B272
:100D3000B4F5006FD2DB01200A490870024903486C
:100D400000F012F810BD0000208000101064024076
:100D50002C2401202C040020000000002C34012051
:100D60002C440020AB0300200246094B9A4201D2DA
:100D7000084801E00648103801F000531BB1064B4B
:100D80000B40C36002E0044B0B40836070470000DF
:100D900010640240006002407D0F7D0F21B10268A7
:100DA00042F00102026003E0026822F001020260E8
:100DB00070470000016821F001010160002101601D
:100DC00041608160C1600161212141614A498842DD
:100DD00004D13D21484A103A91608CE046491831CF
:100DE000884205D14FF47461434A103A916082E021
:100DF00041493031884205D14FF474113E4A103ACE
:100E0000916078E03C494831884205D14FF07461E7
:100E1000394A103A91606EE037496031884204D116
:100E20003649354A103AD16065E033497831884215
:100E300004D13349304A103AD1605CE02E499031F8
:100E4000884204D12F492C4A103AD16053E02A49F4
:100E5000A831884205D14FF03D51274A103AD16060
:100E600049E02949884204D13D21274A083A1160C6
:100E700041E025491831884205D14FF47461224A76
:100E8000083A116037E020493031884205D14FF4EB
:100E900074111D4A083A11602DE01B4948318842FF
:100EA00005D14FF07461184A083A116023E01649E1
:100EB0006031884204D11149134A121F11601AE0AF
:100EC00011497831884204D10D490F4A121F11602F
:100ED00011E00D499031884204D10A490A4A121F93
:100EE000116008E00849A831884204D14FF03D5113
:100EF000054A121F11607047106002403D0000203B
:100F0000400F002000003D201064024070B50246F2
:100F1000002000240025124EB24201D2114B01E004
:100F20000F4B103B104E0E4036B11E2606EAD12460
:100F3000166806EA040502E0566906F0800501F02D
:100F400000560EB15C6800E01C68084E344004EAAC
:100F5000010616B10DB1012000E0002070BD0000B7
:100F600010640240006002403C0F3C0F7D0F7D0F7B
:100F700010B501F080034BB122B1436943F0800307
:100F8000436103E0436923F08003436180290BD070
:100F90002AB1036801F01E042343036004E00368E0
:100FA00001F01E04A343036010BD000010B5002231
:100FB0000268134B1A40CC680B6823434C692343E7
:100FC0008C692343CC6923430C6A23434C6A234333
:100FD0008C6A23434C6B23438C6B23431A4302607C
:100FE000426922F00702D1E90B3423431A434261DC
:100FF0000B6943604B6883608B68C36010BD000061
:101000003F801CF07047000010B5052002F0A6FBE1
:101010000948006860B90120084908700620487036
:10102000002000F0EEF9012005490870054908701C
:10103000012000F07DF810BD00024242A80300200C
:10104000AA0300200000002010B5052002F086FB56
:101050001848006810BB18484078062826D1164862
:101060000078012803D10720134948701EE0124878
:101070000078022803D108200F49487016E00E4876
:101080000078032803D109200B4948700EE00A4874
:101090000078042803D10A200749487006E0064872
:1010A0000078052802D10B2003494870042000F085
:1010B0003FF810BD08024242A803002010B50520E9
:1010C00002F04CFB1848006810BB1848407806280E
:1010D00026D116480078012803D10520134908704D
:1010E0001EE012480078022803D101200F49087041
:1010F00016E00E480078032803D102200B4908703F
:101100000EE00A480078042803D10320074908703C
:1011100006E006480078052802D10420034908703B
:10112000402000F005F810BD18024242A80300203C
:101130000149086070470000143C01400021234928
:101140008279002A3AD00A46126803689A430B460D
:101150001A600A1D126803689A430B1D1A6002790F
:1011600011440A6803681A430A60184A0832126870
:1011700003689A43154B08331A601A1D12680368F6
:101180009A43124B0C331A604279102A0ED11A1F5F
:10119000126803681A430D4B08331A601A1D12684F
:1011A00003681A43094B0C331A600DE00749427972
:1011B00011440A6803681A430A6005E00279114481
:1011C0000A6803689A430A6070470000003C0140C7
:1011D000F0B50A4600210023002400BF3DE00125B0
:1011E00005FA01F3156805EA03049C4234D1056849
:1011F0004F000326BE40B543056015794E00B5404B
:101200000668354305601579012D02D01579022D48
:1012100016D185684F000326BE40B54385605579D9
:101220004E00B540866835438560456801268E408E
:10123000B5434560456896798E40B6B23543456002
:10124000C5684F000326BE40B543C560D5794E0042
:10125000B540C6683543C560491C1029BFD3F0BDF1
:10126000F0B5002300244D07ED0E02FA05F3CE1071
:1012700000F1200555F826504E07F70E0F26BE4008
:10128000B543CF1000F1200646F82750CE1000F1EC
:10129000200555F8265045EA0304CE1000F120053C
:1012A00045F82640F0BD4183704701837047000038
:1012B00010B504460723012221460848FFF7A0FC89
:1012C0000648FFF7F9FC00BF02210448FFF734FC91
:1012D0000028F9D00148FFF72BFC10BD0021014088
:1012E00000BFFEE700B585B00121142000F078FDB5
:1012F0004520039000208DF8100003208DF8110088
:1013000001208DF8130003A92D48FFF761FF01208C
:10131000039000208DF8100003208DF811000120AB
:101320008DF8130003A92748FFF752FF0121880316
:1013300000F066FD0021042000F0ACFE0221042034
:1013400000F0A8FE0621042000F0A4FE4520009035
:1013500000208DF804000C208DF8050001208DF888
:1013600006006846FFF7EAFE06208DF80800002018
:101370008DF8090001208DF80A008DF80B0002A8F5
:1013800000F0E6FC08208DF8080000208DF8090028
:1013900001208DF80A008DF80B0002A800F0D8FC9F
:1013A00017208DF8080000208DF8090001208DF825
:1013B0000A008DF80B0002A800F0CAFC05B000BDC1
:1013C00000100240000802402DE9F04107460C469B
:1013D00015461E462A2000F0B9F9384600F09AF961
:1013E000284600F097F92B2000F0B0F9204600F0D5
:1013F00091F9304600F08EF92C2000F0A7F9BDE8F5
:10140000F08170B50646EF2340F23F1200210846F6
:10141000FFF7DAFF002408E0002503E0304600F083
:1014200079F96D1CF02DF9D3641CB4F5A07FF3D3CA
:1014300070BD2DE9FF4F85B081468A46002003909C
:1014400083460798A0EB09040898A0EB0A06CDF89C
:101450000890CDF804A0002C01DD012705E00CB9AF
:10146000002702E04FF0FF376442002E02DD4FF00C
:10147000010806E016B94FF0000802E04FF0FF380F
:101480006642B44201DD254600E035460020049066
:101490001BE0129ADDE9011000F01EF803982044C9
:1014A0000390B3440398A84205DD0398401B0390C2
:1014B000029838440290AB4504DDABEB050B019874
:1014C000404401900498401C0490691C0498884290
:1014D000DFD309B0BDE8F08F70B504460D4616465F
:1014E0002B46224629462046FFF76EFF304600F085
:1014F00011F970BD2DE9F84F05460F4616469A467C
:10150000DDF828B00095B5F5987F01D8E02F01D916
:10151000BDE8F88FA6F12000C6B207F10F03EA1D5F
:1015200039462846FFF750FFBAF1000F25D10024B5
:1015300020E004EB0610224911F800904FF000085B
:1015400011E009F0010018B1584600F0E3F803E09B
:101550001C48006800F0DEF84FEA69096D1C08F1CC
:10156000010000F0FF08B8F1080FEADB009D7F1CC6
:10157000601CC4B2102CDCDB1FE000241BE004EB79
:1015800006100F4911F800904FF000080EE009F026
:10159000010028B1391905EB08005A46FFF79CFFF6
:1015A0004FEA690908F1010000F0FF08B8F1080FDF
:1015B000EDDB601CC4B2102CE1DB00BFA8E700002B
:1015C00028460008A403002008B54FF6FF70DC236E
:1015D0001422114600901046FFF72BFF4FF6FF70C4
:1015E000DC234FF49672194600901420FFF721FF78
:1015F0004FF6FF7014231722194600901846FFF784
:1016000018FF4FF6FF732BA215210A2000F060F897
:101610004FF6FF7057231722194600901420FFF74A
:1016200008FF4FF6FF7324A253210A2000F050F860
:101630004FF6FF709A231722194600901420FFF7E7
:10164000F8FE4FF6FF731DA296210A2000F040F825
:101650004FF6FF70DF235A22DC2100901046FFF77F
:10166000E8FE4FF6FF70DF23A022DC210090104639
:10167000FFF7DFFE4FF6FF70DF23E622DC2100904C
:101680001046FFF7D6FE4FF6FF730DA20021084665
:1016900000F01EF84FF6FF730BA2C8214FF49770AD
:1016A00000F016F84FF6FF7308A2DC210A2000F0C4
:1016B0000FF808BD330000003200000031000000C8
:1016C000416D702F56000000460000003000000001
:1016D000F8B505460E4614461F4616E0B5F5987F48
:1016E00001D900251036E02E06D900200546064611
:1016F0004FF47840FFF785FE0097227800233146AB
:101700002846FFF7F7FE0835641C20780028E5D14D
:10171000F8BD000010B5044680210548FFF7C5FD5F
:10172000C4F3072000F01EF8E0B200F01BF810BD73
:101730000004024010B5044680210348FFF7B5FDC0
:10174000204600F00FF810BD0004024010B504461A
:1017500080210348FFF7A7FD204600F003F810BDE5
:101760000004024010B50446204600F03DFC10BDC8
:101770001CB50121022000F033FB00F0D5FB4FF433
:10178000E070009001208DF8040000208DF8060024
:1017900003208DF8050001208DF8070069468D486B
:1017A000FFF716FD4FF4E0718A48FFF77EFD4021F8
:1017B0008848FFF778FDC82001F0D0FF4021854818
:1017C000FFF773FDC82001F0C9FF4FF48071814815
:1017D000FFF76BFDC82001F0C1FFCF20FFF7B6FF78
:1017E0000020FFF7A7FFC120FFF7A4FF3020FFF77D
:1017F000A1FFED20FFF7AAFF6420FFF79BFF032066
:10180000FFF798FF1220FFF795FF8120FFF792FF67
:10181000E820FFF79BFF8520FFF78CFF0020FFF7F4
:1018200089FF7920FFF786FFCB20FFF78FFF392054
:10183000FFF780FF2C20FFF77DFF0020FFF77AFFE6
:101840003420FFF777FF0220FFF774FFF720FFF740
:101850007DFF2020FFF76EFFEA20FFF777FF0020D3
:10186000FFF768FF0020FFF765FFC020FFF76EFF5E
:101870001D20FFF75FFFC120FFF768FF1220FFF771
:1018800059FFC520FFF762FF3320FFF753FF3F20CA
:10189000FFF750FFC720FFF759FF9220FFF74AFFDD
:1018A0003A20FFF753FF5520FFF744FF3620FFF79C
:1018B0004DFF7820FFF73EFFB120FFF747FF0020E4
:1018C000FFF738FF1220FFF735FFB620FFF73EFF86
:1018D0000A20FFF72FFFA220FFF72CFF4420FFF77D
:1018E00035FF0220FFF726FFF220FFF72FFF002031
:1018F000FFF720FF2620FFF729FF0120FFF71AFF3F
:10190000E020FFF723FF0F20FFF714FF2220FFF74F
:1019100011FF1C20FFF70EFF1B20FFF70BFF082015
:10192000FFF708FF0F20FFF705FF4820FFF702FF32
:10193000B820FFF7FFFE3420FFF7FCFE0520FFF77D
:10194000F9FE0C20FFF7F6FE0920FFF7F3FE0F204B
:10195000FFF7F0FE0720FFF7EDFE0020FFF7EAFE9D
:10196000E120FFF7F3FE0020FFF7E4FE2320FFF75E
:10197000E1FE2420FFF7DEFE0720FFF7DBFE10204C
:10198000FFF7D8FE0720FFF7D5FE3820FFF7D2FE7D
:101990004720FFF7CFFE4B20FFF7CCFE0A20FFF7D2
:1019A000C9FE1320FFF7C6FE0620FFF7C3FE302056
:1019B000FFF7C0FE3820FFF7BDFE0F20FFF7BAFE8D
:1019C0001120FFF7C3FE782001F0C8FE2920FFF7A1
:1019D000BDFE1CBD0004024000BFFEE710B54FF67F
:1019E000FF7311A21E214B20FFF772FE4FF6FF730B
:1019F00012A23C214B20FFF76BFE4FF6FF7314A29F
:101A00005A214B20FFF764FE4FF4784315A278214A
:101A10004B20FFF75DFE4FF6FF7317A296214B2078
:101A2000FFF756FE10BD0000312E20496E70757410
:101A30002020496D7020546573740000322E204FB1
:101A4000757470757420496D70205465737400004E
:101A5000332E204761696E202020202020205465ED
:101A600073740000342E20416D702D467265712014
:101A70002020546573740000352E204661756C7407
:101A800020202020202054657374000010B54FF6EC
:101A9000FF7311A21E214B20FFF71AFE4FF6FF73B2
:101AA00012A23C214B20FFF713FE4FF6FF7314A246
:101AB0005A214B20FFF70CFE4FF6FF7315A2782139
:101AC0004B20FFF705FE4FF4784317A296214B20D9
:101AD000FFF7FEFD10BD0000312E20496E707574B9
:101AE0002020496D7020546573740000322E204F01
:101AF000757470757420496D70205465737400009E
:101B0000332E204761696E2020202020202054653C
:101B100073740000342E20416D702D467265712063
:101B20002020546573740000352E204661756C7456
:101B300020202020202054657374000010B54FF63B
:101B4000FF7311A21E214B20FFF7C2FD4FF6FF735A
:101B500012A23C214B20FFF7BBFD4FF4784314A2A7
:101B60005A214B20FFF7B4FD4FF6FF7315A27821E1
:101B70004B20FFF7ADFD4FF6FF7317A296214B20C8
:101B8000FFF7A6FD10BD0000312E20496E70757460
:101B90002020496D7020546573740000322E204F50
:101BA000757470757420496D7020546573740000ED
:101BB000332E204761696E2020202020202054658C
:101BC00073740000342E20416D702D4672657120B3
:101BD0002020546573740000352E204661756C74A6
:101BE00020202020202054657374000010B54FF48D
:101BF000784311A21E214B20FFF76AFD4FF6FF73B9
:101C000012A23C214B20FFF763FD4FF6FF7314A295
:101C10005A214B20FFF75CFD4FF6FF7315A2782188
:101C20004B20FFF755FD4FF6FF7317A296214B206F
:101C3000FFF74EFD10BD0000312E20496E70757407
:101C40002020496D7020546573740000322E204F9F
:101C5000757470757420496D70205465737400003C
:101C6000332E204761696E202020202020205465DB
:101C700073740000342E20416D702D467265712002
:101C80002020546573740000352E204661756C74F5
:101C900020202020202054657374000010B54FF6DA
:101CA000FF7311A21E214B20FFF712FD4FF4784362
:101CB00012A23C214B20FFF70BFD4FF6FF7314A23D
:101CC0005A214B20FFF704FD4FF6FF7315A2782130
:101CD0004B20FFF7FDFC4FF6FF7317A296214B2018
:101CE000FFF7F6FC10BD0000312E20496E707574B0
:101CF0002020496D7020546573740000322E204FEF
:101D0000757470757420496D70205465737400008B
:101D1000332E204761696E2020202020202054652A
:101D200073740000342E20416D702D467265712051
:101D30002020546573740000352E204661756C7444
:101D4000202020202020546573740000704700007C
:101D500070B5002100230F22C4781CB3174C2468EF
:101D600004F4E064C4F5E064C4F30721C1F10404A1
:101D7000E3B20A4144789C40E1B2847814402143A4
:101D80000C07210E0E4C05786155047804F01F05F0
:101D90000124AC4005786D11AD0005F1E025C5F8D2
:101DA000004109E0047804F01F050124AC40054D12
:101DB0000678761145F8264070BD00000CED00E075
:101DC00000E400E080E100E002490143024A1160C2
:101DD000704700000000FA050CED00E070470000BD
:101DE00029B1064A12680243044B1A6004E0034A10
:101DF00012688243014B1A6070470000303802407D
:101E000029B1064A12680243044B1A6004E0034AEF
:101E100012688243014B1A60704700004438024048
:101E200029B1064A12680243044B1A6004E0034ACF
:101E300012688243014B1A60704700002438024048
:101E4000F0B5002100220024022500260223324F93
:101E50003F6807F00C0121B1042905D0082937D1CA
:101E600005E02E4F076036E02D4F076033E02A4F24
:101E70003F1F3F68C7F38056274F3F1F3F6807F05B
:101E80003F036EB1264FB7FBF3F7DFF88CC0ACF120
:101E9000040CDCF800C0CCF3881C07FB0CF40CE04D
:101EA0001E4FB7FBF3F7DFF870C0ACF1040CDCF8A1
:101EB00000C0CCF3881C07FB0CF4174F3F1F3F6892
:101EC000C7F301477F1C7D00B4FBF5F7076002E014
:101ED000124F076000BF00BF0F4F3F6807F0F001CF
:101EE0000909104F7A5C0768D74047600A4F3F687E
:101EF00007F4E051890A0B4F7A5C4768D740876046
:101F0000054F3F6807F46041490B064F7A5C47680C
:101F1000D740C760F0BD0000083802400024F4003C
:101F200040787D01BA03002000B587B0012102206E
:101F3000FFF756FF01210803FFF762FF38200590E5
:101F400002208DF8180000208DF81A0003208DF86B
:101F5000190001208DF81B0005A92148FFF738F969
:101F6000052203211E48FFF77BF9052204211C48A6
:101F7000FFF776F9052211461948FFF771F901219B
:101F80000803FFF74DFF00214FF48050FFF748FF93
:101F90000020ADF800004FF48270ADF80200002080
:101FA000ADF804000220ADF806000120ADF80800ED
:101FB0004002ADF80A000020ADF80C00ADF80E00AC
:101FC0000720ADF810006946064800F043F80121EB
:101FD000044800F025F8FF2000F006F807B000BD27
:101FE000000402400030014010B5044600BF022149
:101FF0000A4800F021F80028F9D02146074800F0EF
:1020000027F800BF0121054800F016F80028F9D094
:10201000024800F01AF8C0B210BD000000300140C4
:1020200021B1028842F04002028004E002884FF6AB
:10203000BF731A40028070470246002013890B408C
:102040000BB1012000E000207047014688897047ED
:102050008181704710B50022028802F441520B883A
:102060004C8823438C882343CC8823430C89234307
:102070004C8923438C892343CC8923431A43028010
:10208000838B4FF2FF74234083830B8A038210BD3E
:102090007047000030B500228B071C0F0F2303FA96
:1020A00004F20B4B8C1053F824309343084C8D10E2
:1020B00044F8253023468C1053F824308C07240F25
:1020C00000FA04F42343024C8D1044F8253030BD4F
:1020D000083801400CB50020019000903448006899
:1020E00040F480303249086000BF3148006800F495
:1020F000003000900198401C0190009818B9019898
:10210000B0F5A04FF1D12A48006800F4003010B1BA
:102110000120009001E0002000900098012846D1A5
:1021200023484030006840F0805021494031086029
:102130002048006840F440401E4908601C480830B0
:1021400000681B49083108600846006840F40040F8
:1021500008600846006840F4A05008601648091F4F
:102160000860081F006840F08070091F086000BF09
:102170000F48006800F000700028F9D040F20570A8
:102180000E4908600A480830006820F0030008493A
:10219000083108600846006840F00200086000BF8F
:1021A00003480830006800F00C000828F8D10CBD86
:1021B000003802400070004019544007003C0240C3
:1021C00070B502460123002419E00023002013E02B
:1021D00032F81060451C32F81550AE420ADD32F874
:1021E0001040451C32F8155022F81050451C22F8BA
:1021F00015400123451CA8B24D1E8542E8DC002B8A
:10220000E3D170BD042808D14FF0E021096941F005
:1022100004014FF0E022116107E04FF0E02109696D
:1022200021F004014FF0E022116170477047000077
:1022300010B51548006840F4700013490860134851
:10224000006840F001001149086000200F49083182
:1022500008600E4800680E4908400C4908600D48A7
:10226000091D0860081F006820F48020091F08600D
:10227000002006490C310860FFF72CFF4FF000608A
:1022800001498039086010BD88ED00E00038024047
:10229000FFFFF6FE1030002430B589B004460D462D
:1022A00001210846FFF7ACFD00211E4800F03CF874
:1022B00000211C4800F092F806A800F0D3F807941B
:1022C000ADF818500020ADF82000ADF81A008DF8D8
:1022D000220006A9134800F083F86020ADF804003E
:1022E0000120ADF806000798401E40080390022028
:1022F000ADF810000420ADF808000020ADF8120081
:10230000ADF81400ADF8160001A9064800F028F851
:102310000121044800F008F80121024800F010F8FB
:1023200009B030BD0000014021B1028842F0010235
:10233000028004E002884FF6FE731A400280704764
:1023400031B1B0F8442042F40042A0F8442005E046
:10235000B0F84420C2F30E02A0F8442070470000F9
:1023600070B5002400220023058C4FF6FE76354020
:102370000584028C8388048B4FF68F752C40B51E24
:102380002C400D882C43751E2A408D892A434D8888
:102390002A43104DA84202D00F4DA84213D14FF648
:1023A000F7752A40CD892A434FF6FB752A408D8860
:1023B0002A434FF6FF652B404FF6FF552B400D8A01
:1023C0002B434D8A2B43838004838D6845630284AD
:1023D00070BD0000000001400004014041627047F0
:1023E00000220288184B98420ED0184B98420BD00E
:1023F000B0F1804F08D0164B984205D0154B98424B
:1024000002D0154B984204D14FF68F731A404B8877
:102410001A43124B984207D0114B984204D04FF602
:10242000FF431A400B891A4302804B68C3620B8832
:102430000385054B984202D0044B984201D18B7A18
:10244000038601238382704700000140000401409D
:102450000004004000080040000C00400010004054
:10246000001400404FF0FF314160002101800181E4
:1024700041808172704700002DE9F04F2DED048BF3
:10248000ADF61C1D4FF47A774CF2EC284FF00009A2
:10249000002004908346039001908246FEF7B1FF2E
:1024A000A9E1FFF791F8D94800780128F8D1D84878
:1024B00040780A28F4D1D7A000F096FCC82001F09B
:1024C0004DF9002428E047443946D4A000F08CFCA4
:1024D000052001F043F950224FF4C8710020FEF7A7
:1024E00034FB054640F6E440684340F6FF71B0FB1C
:1024F000F1F500EE105AF8EE400A9FEDCA1A9FED72
:10250000CA0A10EE810ABCEEC00A10EE100A0DF6DF
:10251000D40141F82400641C0A2CD4D300240CE01C
:102520000DF6D40050F82400484505D90DF6D40026
:1025300050F8249004F0FF0B641C0A2CF0D35B4687
:102540004A46BAA10DF6FC0000F05EFC4FF4784359
:102550000DF6FC025A216420FFF7BAF80F2001F0B3
:10256000FDF800EE109AB8EE400ADFEDB30A20EE57
:10257000200ABCEEC00A10EE106A5C4608E00DF6B8
:10258000D40050F82400B04201D2E0B20190641CA3
:102590000A2CF4D3601C00FB08FA00242DE004EBA5
:1025A000C40000EB04100AEBC00739469BA000F002
:1025B0001BFC052001F0D2F850224FF4C871002016
:1025C000FEF7C3FA054640F6E440684340F6FF7163
:1025D000B0FBF1F500EE105AF8EE400A9FED911AAB
:1025E0009FED910A10EE810ABCEEC00A10EE100AAF
:1025F0000DF2B45141F82400641CC72CCFD3DDF890
:10260000B415881BFDF7DCFD41EC190BB0EE490A4F
:10261000F0EE690A00F00CFCB0EE408AF0EE608A41
:1026200051EC180BFDF7ECFD00EE100ABCEEC00AF1
:1026300010EE105A012441E00DF2B45151F824106B
:10264000701AFDF7BDFD41EC190BB0EE490AF0EE32
:10265000690A00F0EDFBB0EE408AF0EE608A51ECC2
:10266000180BFDF7CDFD00EE900A00EE105AB8EE03
:10267000400AF4EEC00AF1EE10FA1ED20DF2B45187
:1026800051F82410701AFDF79BFD41EC190BB0EEC8
:10269000490AF0EE690A00F0CBFBB0EE408AF0EE9A
:1026A000608A51EC180BFDF7ABFD00EE100ABCEE92
:1026B000C00A10EE105AE0B20390641CC72CBBD3C2
:1026C000039800EBC00101EB00100AEBC000029080
:1026D000AAF164004F21B0FBF1F800242BE004FBC9
:1026E00008F000F1640739464CA000F07DFB05209E
:1026F00001F034F850224FF4C8710020FEF725FA9B
:10270000054640F6E440684340F6FF71B0FBF1F542
:1027100000EE105AF8EE400A9FED421A9FED420A71
:1027200010EE810ABCEEC00A10EE100A0DF27441E0
:1027300041F82400641C4F2CD1D300241FE04F2CFF
:102740000DD20DF2744050F82400C821484340F6E1
:10275000E441B0FBF1F005A941F824000EE0A4F13A
:102760004F000DF2B45151F82000C821484340F603
:10277000E441B0FBF1F005A941F82400641CB4F574
:102780008B7FDCD300230DF6FC025A216420FEF778
:102790009FFF002329A25A216420FEF799FF0024FD
:1027A00015E04FF4784005AA0090601C52F8200014
:1027B0001430C0F1F00305A850F824001430C0F123
:1027C000F00104F11502501EFEF733FE641CB4F54F
:1027D0008B7FE6D31CA10DF6FC00029A00F014FBDF
:1027E0004FF478430DF6FC020021C820FEF770FF7D
:1027F000002006490870064840780A283FF451AE88
:102800000DF61C1DBDEC048BBDE8F08F0000002010
:10281000A8030020313030300D0A000025640D0A75
:10282000000000006ABC843F000045434D61783AD7
:1028300025642825642900008104353F53746167AD
:102840006520322E2E2E00004648203D2025642093
:10285000487A000010B50020FEF7D3FD06E04FF4E3
:10286000784305A200210846FEF732FF044840786D
:102870000B28F4D010BD00004661756C7400000098
:10288000A803002010B50020FEF7BBFD06E04FF4C2
:10289000784305A200210846FEF71AFF0448407855
:1028A0000928F4D010BD00004761696E00000000E7
:1028B000A803002030B52DED068B89B00020FEF76F
:1028C000A0FD6CE050224FF4C8710020FEF73DF9E6
:1028D000044640F6E440604340F6FF71B0FBF1F07F
:1028E00000EE100AB8EE408AB2EE020AC8EE008A84
:1028F0009FED2F0A30EE680ADFED2E0A20EE200A47
:1029000080EE289A0A2D03DD00250020FEF779FDD0
:1029100019EE100AFDF761FC41EC1A0B53EC1A2B6F
:1029200025A101A800F070FA4FF4784301AA2821EC
:102930004B20FEF7CDFE18EE100AFDF74EFC41ECE1
:102940001A0B53EC1A2B21A101A800F05DFA4FF4E9
:10295000784301AA50214B20FEF7BAFEDFED1F0A93
:102960009FED1F0A18EE200AB0EE408A18EE100AFA
:10297000FDF733FC41EC1A0B53EC1A2B19A101A8FB
:1029800000F042FA4FF4784301AA78214B20FEF779
:102990009FFE4FF4967000F0E1FE681CC5B215482A
:1029A000407807288ED009B0BDEC068B30BD000002
:1029B0003333C64200B81C46494E5F5A78203D204A
:1029C000252E3066204F686D00000000566F6C2089
:1029D00020203D20252E3066206D56006ABC843FA5
:1029E000000045435670702020203D20252E306683
:1029F000206D5600A803002010B52DED068B88B081
:102A00000020FEF7FEFC66E050224FF4C871002063
:102A1000FEF79BF8044640F6E440604340F6FF7141
:102A2000B0FBF1F000EE100AB8EE400AB0EE408ABA
:102A30009FED2D0AC8EE008A9FED2C0A30EE680A41
:102A4000DFED2B0A20EE200A80EE289A19EE100AFC
:102A5000FDF7C3FB41EC1A0B53EC1A2B25A168467A
:102A600000F0D2F94FF478436A4628214B20FEF754
:102A70002FFE18EE100AFDF7B0FB41EC1A0B53ECD9
:102A80001A2B21A1684600F0BFF94FF478436A463B
:102A900050214B20FEF71CFEDFED200A9FED200A9F
:102AA00018EE200AB0EE408A18EE100AFDF795FBEA
:102AB00041EC1A0B53EC1A2B1AA1684600F0A4F94A
:102AC0004FF478436A4678214B20FEF701FE4FF41D
:102AD000967000F043FE18484078082894D008B05B
:102AE000BDEC068B10BD000037891141C3F5C8420B
:102AF00000401C464F55545F5A78203D20252E300B
:102B000066204F686D000000566F6C202020203D2D
:102B100020252E3066206D56000000006ABC843FE0
:102B200000004543567070202020203D20252E3087
:102B300066206D5600000000A803002010B540F28A
:102B400025511D4800F08EF810B31B4800F044F9E1
:102B5000C4B21A48008800F40040C8B91748008879
:102B600000F4804060B10A2C03D000201349088093
:102B700020E01248008840F400401049088019E025
:102B80000D2C06D10D48008840F480400B49088088
:102B900010E00A480088C0F30D0009490C540748AA
:102BA0000088401C0549088008460088C72801DDC8
:102BB0000020088010BD000000100140B803002074
:102BC0002F46012010B540F225511D4800F04AF86B
:102BD00010B31B4800F000F9C4B21A48008800F492
:102BE0000040C8B91748008800F4804060B10A2C42
:102BF00003D000201349088020E01248008840F4E8
:102C000000401049088019E00D2C06D10D480088BD
:102C100040F480400B49088010E00A480088C0F367
:102C20000D0009490C5407480088401C05490880DC
:102C300008460088FE2801DD0020088010BD000045
:102C400000480040AC0300203044012021B18289BB
:102C500042F40052828104E082894DF6FF731A40EB
:102C60008281704770B502460024002300250020B1
:102C700040F66A16B14200D100BFC1F3421501F01F
:102C80001F03012606FA03F3012D02D19689334072
:102C900006E0022D02D1168A334001E0968A3340C5
:102CA0000C12012606FA04F41688344013B10CB154
:102CB000012000E0002070BDF0B50346002400268E
:102CC0000025002040F66A17B94200D100BF18461F
:102CD000C1F3421401F01F06012707FA06F5012C83
:102CE00001D10C3004E0022C01D1103000E014308E
:102CF0001AB107682F43076002E00768AF43076017
:102D0000F0BD00002DE9FF4705460E460024A14610
:102D100000BFA046B08900B100BF2C8A24F4405403
:102D2000F08804432C82AC8941F20C608443B08863
:102D300031890843718908430443AC81AC8A24F487
:102D40004074B0890443AC826846FFF779F82048A4
:102D5000854202D01F48854202D1DDF80C9001E087
:102D6000DDF80890A88900F4004040B109EBC900E3
:102D700000EB091031684900B0FBF1F707E009EBFF
:102D8000C90000EB091031688900B0FBF1F764203D
:102D9000B7FBF0F004012009642101FB1078A88939
:102DA00000F4004040B1322000EBC800B0FBF1F06D
:102DB00000F00700044308E0322000EB0810642113
:102DC000B0FBF1F000F00F0004432C81BDE8FF8759
:102DD000001001400014014001468888C0F308003B
:102DE000704700BFFEE700000FB4054B10B503A904
:102DF000044A029800F0F8F810BC5DF814FB0000DB
:102E0000E1370008B40300200FB4084B10B504A943
:102E100002AA039800F0E8F8044602A9002000F096
:102E20007AFC204610BC5DF814FB00001737000840
:102E30002DED020B019820F0004001909DED000B5C
:102E400002B0704702E008C8121F08C1002AFAD178
:102E500070477047002001E001C1121F002AFBD11A
:102E6000704700002DE9FF5F82B00021DDE90430EA
:102E7000020DDDF840B0034318D044F61050A2F222
:102E8000FF3242431514119801281FD0A5EB0B0007
:102E9000401C5FEA000A4FF000064E4FDFF8389101
:102EA000B046504615D5CAF1000413E0119801242C
:102EB0004AA3012801D16FEA0B010298119AC0E9D7
:102EC0000031C0E9024206B0BDE8F09FCBF100003E
:102ED000DFE704460021404A491842EB0450CDE99F
:102EE000001012E0E00707D032463B464046494614
:102EF000FDF724FB8046894632463B46104619467C
:102F0000FDF71CFB06460F466410002CEAD1DDE9F4
:102F10000401DDE90023BAF1000F06DAFDF70EFB2C
:102F200042464B46FDF70AFB05E0FDF779FB4246BA
:102F30004B46FDF775FB04460E460022284BFDF775
:102F4000F7FB03D84FF0FF30014607E00022254B86
:102F500020463146FDF74BFAFDF7D1FB102409E07E
:102F6000002C0ADB0A220023FDF77CF9039B303298
:102F70001A55641E50EA0102F2D1641C039AC4F18E
:102F800011031444119A012A03D0012208430DD1E0
:102F90000AE0084304D000204FF0110B119072E7B3
:102FA000A3EB0B056D1E0DE05B4504DD4FF0000249
:102FB00005F1010504E003DA4FF00002A5F1010577
:102FC000002AECD002981199C0E90231C0E900450D
:102FD00079E70000000014400000F03F30000000DE
:102FE0000000F0430000E03F2DE9FF4F95B09B4605
:102FF0008946064600250FE2252877D1002427467A
:10300000F84A0121059400E0044316F8013F203BF3
:1030100001FA03F01042F7D130782A2811D06FF06E
:103020002F033078A0F13002092A16D8059A44F00F
:10303000020402EB820203EB42021044761C05906C
:10304000EFE759F8042B0592002A03DA504244F4C2
:103050000054059044F00204761C30782E2816D1D6
:1030600016F8010F44F004042A280DD06FF02F0247
:103070003078A0F13003092B09D807EB870302EB66
:103080004303C718761CF3E759F8047B761C3078A5
:103090006C280FD006DC4C2817D068280DD06A2881
:1030A00014D104E0742810D07A280FD10DE044F434
:1030B00000140AE044F4801401E044F440147278EF
:1030C000824202D104F58014761C761C3078662882
:1030D0000BD013DC582877D009DC002875D04528A0
:1030E000F6D04628F4D047281AD19DE118E063288D
:1030F00035D0642879D0652812D195E1702873D035
:1031000008DC6728F1D069286FD06E280DD06F28B1
:1031100006D1B5E073282CD0752875D0782874D0E6
:103120005A46179990476D1C75E1C4F30250022866
:1031300009D003280DD0D9F8001004280DD00D6057
:1031400009F1040967E1D9F80010EA17C1E9005252
:10315000F6E7D9F800100D80F2E70D70F0E719F8E6
:10316000041B8DF8001000208DF80100EA460120B4
:1031700003E059F804AB4FF0FF3061074FF0000156
:1031800002D40DE008F101018846B9420FDA80450A
:10319000F8DB1AF808100029F4D108E008F1010161
:1031A00088468142FADB1AF808100029F6D1059802
:1031B0005B46A0EB080721463846179A00F094FAC0
:1031C000284400EB080507E04DE029E10DE01AF87E
:1031D000010B5A4617999047B8F10108F7D25B46A0
:1031E00021463846179A13E142E00A220092C4F3BE
:1031F00002524FF0000A022A08D059F804CB032AE1
:103200004FEAEC710AD00DE029E02AE009F107014C
:1032100021F00702F2E802C1914609E00FFA8CFCA6
:103220004FEAEC71042A03D14FFA8CFC4FEAEC719F
:10323000002907DA0A460021DCF1000C61EB0201EB
:103240002D2202E0220504D52B228DF80420012234
:1032500003E0E20701D02022F7E7904659E00A2177
:1032600002E010220DE010214FF0000A00910BE067
:1032700010224FF0000A44F004040827009203E0F3
:1032800008224FF0000A0092C4F30252022A05D02D
:1032900059F804CB0021032A08D009E009F10701FD
:1032A00021F00702F2E802C1914605E01FFA8CFC0A
:1032B000042A01D10CF0FF0C4FF00008220728D59A
:1032C000702806D0009B83F0100353EA0A0305D050
:1032D0000EE040228DF80420012208E05CEA0102A1
:1032E00006D030228DF804208DF805000222904689
:1032F000009B83F0080353EA0A030AD15CEA010247
:1033000001D1620705D530228DF804204FF0010865
:103310007F1E582804D034A003900EA802900DE020
:1033200036A0F9E753466046009AFCF79BFF8446B7
:103330000398825C0298401E029002705CEA0100D1
:10334000F0D1029806A9081A00F1200A600702D5F8
:1033500024F4803400E00127574502DDA7EB0A0082
:1033600000E0002000EB0A01009005984144401A5B
:103370000590E00306D45B462146179A059800F0B5
:10338000B3F90544002706E001A85A46C05D179925
:1033900090476D1C7F1C4745F6DBE0030CD55B4670
:1033A0002146179A059800F09FF9054404E0302063
:1033B0005A46179990476D1C0099481E00900029A5
:1033C000F5DC08E0029802995A460078491C0291FF
:1033D000179990476D1CBAF10001AAF1010AF1DCBE
:1033E00065E10000092801003031323334353637C9
:1033F0003839616263646566000000003031323341
:1034000034353637383941424344454600000000E0
:1034100000F058F90544761C307800287FF4ECADB4
:1034200019B02846BDE8F08F620700D4062709F1DD
:10343000070222F0070CFCE80223E14603F00048F3
:103440005FEA080C02D00FF2702C0DE05FEA045C1A
:1034500002D50FF2682C07E05FEAC47C02D00FF2BD
:10346000602C01E0AFF2700C4FF0FF3823F0004306
:10347000CDF850C065280CD006DC452809D0462878
:103480001DD047283DD13DE0662818D067287ED161
:1034900038E00021112F01DB112000E0781CCDE97C
:1034A000000106A90EA8FFF7DDFCDDE90F010E9A69
:1034B00003910021009207F1010A04914DE04FF0C1
:1034C00000400097CDE9011006A90EA8FFF7CAFC3D
:1034D000DDE90F0203920E9B11990022DDF80CA08A
:1034E0000093049211B9791C00EB010AB7EB0A00B2
:1034F00004D4C0F1FF3007F1010A0490AAEB0700E1
:10350000019044E0012F00DA01270021112F01DD95
:10351000112000E03846CDE9000106A90EA8FFF70A
:10352000A1FCDDE90F010E9A0391002104910092A4
:10353000BA4621070CD40399514500DA8A46BAF1FC
:10354000010F05DD009AAAF10101515C302908D074
:10355000B84202DA10F1040F06DA0121CDE90110B8
:1035600015E0AAF10101E9E7002805DC049901440E
:103570000491AAEB000102E0411C514500DD8A469E
:103580000499401A401C01904FF00040029020071F
:1035900004D40198504501DBCDF8048000208DF85B
:1035A0004F0002980DF14F07B0F1004F25D02B20AE
:1035B0000E9002984FF0020800280CDA4042029068
:1035C0002D200E9007E00A210298FCF735FE3031DD
:1035D000029007F8011DB8F10001A8F10108F2DC22
:1035E00002980028EFD1791E0E980870307800F00C
:1035F000200040F0450007F8020D12A8C01B00F1A2
:1036000007081498007800B1012000EB0A01019826
:1036100001EBE07105984144401A401E0590E0031B
:1036200006D45B462146179A059800F05DF80544DC
:103630001498007818B15A46179990476D1CE0030A
:1036400024D55B462146179A059800F04DF80544AD
:103650001CE00498002807DBDDE90301884203DD54
:103660000098405C179901E0179930205A4690471E
:10367000049805F10105401C04900198401E01903A
:1036800004D12E205A46179990476D1CBAF10001BB
:10369000AAF1010ADDDC05E017F8010B5A4617997B
:1036A00090476D1CB8F10001A8F10108F4DC5B46FD
:1036B0002146179A0598ABE62D0000002B0000006C
:1036C000200000002DE9F041044600251E46174663
:1036D000880404D405E039462020B0476D1C641EE0
:1036E000F9D52846BDE8F0812DE9F04104460025D2
:1036F0001E469046C80301D5302700E020278804E5
:1037000004D505E041463846B0476D1C641EF9D526
:103710002846BDE8F0810A68531C0B6010707047A2
:1037200010B504466FF00400FEF76CFDE11704EBE2
:103730005171C1F3C701074A11701046007800EBC0
:103740004001C1EBC0104FF6FF7101EAC000024911
:10375000088010BDAE030020B003002070B5044601
:103760004FF4077094FBF0F0C6B24FF4077094FB6F
:10377000F0F100FB114085B205E04FF4077000F056
:1037800009F8701EC6B2002EF7D115B1284600F018
:1037900001F870BD0146114A12884A434FF0E023F8
:1037A0005A6100229A611A46126942F001021A61B6
:1037B00000BF4FF0E022106900F001021AB100F4DE
:1037C0008032002AF5D04FF0E022126922F0010287
:1037D0004FF0E0231A6100229A617047B003002085
:1037E00000BF054A128802F04002002AF9D0C2B296
:1037F000014B9A8070470000001001404FF4A06018
:10380000FEF7E2FAA820FFF78BFF4FF4E13000F05B
:1038100075F8FDF767FDFDF797F8FDF70FF809213B
:1038200042F20A00FEF738FDFDF7A2FF0020FDF787
:10383000E8FD00202749086000F054F800202649E0
:10384000086001202549087006204870012024499D
:1038500008703DE021484078801F062837D2DFE815
:1038600000F003272A2D30331C48007806281DD28B
:10387000DFE800F01C03101316191948007801281E
:1038800005D10020FDF7BDFD002015490870FEF7A9
:10389000ADF90BE0FEF702FA08E0FEF74FF905E09C
:1038A000FEF79CF802E0FEF7F1F800BF00BF0EE063
:1038B000FFF700F80BE0FFF79FF808E0FEF7E2FFE4
:1038C00005E0FEF7D9FD02E0FEF7C4FF00BF00BF30
:1038D000C0E70000A4030020AC030020A8030020E0
:1038E000AA030020002004E00021034A1154411CD7
:1038F00088B2FF28F8DB70473044012010B588B04B
:10390000044601210846FEF76BFA01211020FEF75C
:1039100077FA072209212248FDF7A2FC07220A2193
:103920001F48FDF79DFC4FF4C060069002208DF803
:103930001C008DF81D0000208DF81E0001208DF860
:103940001F0006A91648FDF743FC02940020ADF8BD
:103950000C00ADF80E00ADF81000ADF814000C200E
:10396000ADF8120002A90F48FFF7CCF901210D486C
:10397000FFF76CF9012240F225510A48FFF79CF944
:1039800025208DF8040003208DF805008DF8060031
:1039900001208DF8070001A8FEF7DAF908B010BD84
:1039A0000000024000100140FFFFFFFFFFFFFFFF8C
:1039B000FFFFFFFFFFFFFFFFFFFFFFFFFFFFFFFF17
:1039C000FFFFFFFFFFFFBEF7FFFFDEFF38C6928C51
:1039D0008E6B6E6B107C96AD3CE7FFFFFFFFFFFF29
:1039E000FFFFFFFFFFFFFFFFFFFFFFFFFFFFFFFFE7
:1039F000FFFFFFFFFFFFFFFFFFFFFFFFFFFFFFFFD7
:103A0000FFFFFFFFFFFFFFFFFFFFFFFFFFFFFFFFC6
:103A1000FFFFFFFFFFFF5DEF159D4F636C420A3212
:103A20008829461925194521E8318E6B38C6FFFFD4
:103A3000FFFFFFFFFFFFFFFFFFFFFFFFFFFFFFFF96
:103A4000FFFFFFFFFFFFFFFFFFFFFFFFFFFFFFFF86
:103A5000FFFFFFFFFFFFFFFFFFFFFFFFFFFFFFFF76
:103A6000FFFFFFFF36A51053104B51530F4B6C3A1D
:103A7000E93167212519E410A30862008308CB52BD
:103A80009AD6FFFFFFFFFFFFFFFFFFFFFFFFFFFFD4
:103A9000FFFFFFFFFFFFFFFFFFFFFFFFFFFFFFFF36
:103AA000FFFFFFFFFFFFFFFFFFFFFFFFFFFFFFFF26
:103AB0003CE77063B363B87CF56311434D32EA2988
:103AC000882126190519051904110411E410830031
:103AD000A308728CFFFFFFFFFFFFFFFFFFFFFFFF49
:103AE000FFFFFFFFFFFFFFFFFFFFFFFFFFFFFFFFE6
:103AF000FFFFFFFFFFFFFFFFFFFFFFFFFFFFDBDE1B
:103B00004B3AF042356C544BB1322E2AEB21A921AD
:103B10006719051904110411041104110411051980
:103B2000E4104200AF73FFFFFFFFFFFFFFFFFFFF47
:103B3000FFFFFFFFFFFFFFFFFFFFFFFFFFFFFFFF95
:103B4000FFFFFFFFFFFFFFFFFFFFFFFF5DEF0932FA
:103B50004C32104B8F324F2A2E2ACC1989198921C9
:103B60004719051904110411C410C41004110411DB
:103B70000411E41042003184FFFFFFFFFFFFFFFF4D
:103B8000FFFFFFFFFFFFFFFFFFFFFFFFFFFFFFFF45
:103B9000FFFFFFFFFFFFFFFFFFFFFFFFEC52471993
:103BA0004C320B2AEC21EC210C22915BEE4A0611DF
:103BB00026190419E410E410A7296621A3080519A1
:103BC00004110411E4108200F7BDFFFFFFFFFFFFA7
:103BD000FFFFFFFFFFFFFFFFFFFFFFFFFFFFFFFFF5
:103BE000FFFFFFFFFFFFFFFFFFFF35A583088821D1
:103BF00088218921AA218A216B42718CFFFF728C56
:103C000083080411C4082942FBDE5DEFEC5A8308E7
:103C10000411041104118308E831DFFFFFFFFFFFE7
:103C2000FFFFFFFFFFFFFFFFFFFFFFFFFFFFFFFFA4
:103C3000FFFFFFFFFFFFFFFFBEF7C731C4102519CD
:103C4000261947194719A8298A52284A55ADFFFF56
:103C5000E831A30805194D6B4D6BFFFF7DEF452142
:103C6000C410041104110411620076ADFFFFFFFFC0
:103C7000FFFFFFFFFFFFFFFFFFFFFFFFFFFFFFFF54
:103C8000FFFFFFFFFFFFFFFF96B56200041104195D
:103C900005110519C4088B4AB6B55DEFF7BDFFFFE6
:103CA0008E6B62002942AA5A0842FFFFFFFFCC52E6
:103CB0008308041104110411A308AD52FFFFFFFF94
:103CC000FFFFFFFFFFFFFFFFFFFFFFFFFFFF1CE7FF
:103CD000FFFFFFFFFFFFFFFF4E63620004110411AF
:103CE0000411E41062008E63FFFFFFFFFFFFFFFF80
:103CF000CF730100F39C2C6396B5FFFFFFFF2D5B94
:103D00008300041104110411E41067213DEFFFFF4B
:103D1000FFFFFFFFFFFFFFFFF8BDB7B59EEFCB52E0
:103D2000B394FFFFFFFFDFFFE831A3080411041184
:103D300004110411A3084942FFF7FFF7FFFFFFFF3B
:103D40006A4A01007284FFFFFFFFFFF7DFEF093AC5
:103D5000A3080411041104110411051118BEFFFF7A
:103D6000FFFFFFFFFFFFFFFFF07B6200E831C7317D
:103D7000410035A5FFFF5DEF4621C4100411041179
:103D800004110411E410A308769DFFF7FFFFB7ADFF
:103D9000A308A308C7319EE7FFF7FFF776A5A3089E
:103DA000E4100411041104110511051135A5FFFFDC
:103DB000FFFFFFFFFFFFFFFFDBDEA7298300C4102B
:103DC000C410C4101CE79EEF0511E4100411041187
:103DD000041104110419C408E510D16BD16BC50896
:103DE0006400A50843002B32779DB3842519C410C5
:103DF000041104110411041125192609359DFFFF32
:103E0000FFFFFFFFFFFFFFFFFFFFAF73620004191B
:103E1000051982000D5B8E9B6210051104110411BF
:103E20000419E41085000511C439815A407B229C95
:103E300043AC03A4839B82728249C218A400C500CC
:103E4000E41004190411051947196711EC5ABEFF53
:103E5000FFFFFFFFFFFFFFFFDFFFDBDEC410E4100B
:103E600004110511A41801C08388E4000519041980
:103E7000C5084421438323D542FEE4FE27FF07FF04
:103E8000A4FE64FE03FEA3FDE2FC42EC83B32462C5
:103E9000E510C40804192619A81987210090D3BC7D
:103EA000FFFFFFFFFFFFFFFFDFFFFFFF107C420070
:103EB00005190511832801D044F8A348E400C5087A
:103EC000445A02EDE2FD02FE66FE74FFB8FF73FF86
:103ED000E7F6A6F645F6A4F5C3FC62FCC2FCC2FCFC
:103EE000E3CBC449061188198701A49001F8EC9A24
:103EF000FFFFFFFFFFFFFFFFFFFFFFFFBEF7E83100
:103F000083000509824001C023F885F0A348A4007E
:103F1000445A02FD23CCC2DC04FE28FE48F646F6D5
:103F200024F6E4F564FDE3FC62FCC2FC02E402DC7E
:103F3000E2FCA47A48016701C47824F802F884B04E
:103F40007DE7FFFFFFFFFFFFFFFFFFFFFFFFDBDE60
:103F50002519A300C43802E022D844F8A6F8A478B2
:103F60006300432183728339829B21F561FD22FD29
:103F7000E2FCA2FC42FC42FC42FC22AB8341C39225
:103F8000045226012519A49844F823F802F8A4D075
:103F90009EEFFFFFFFFFFFFFFFFFFFFFFFFFFFFFA2
:103FA0009AD68729A50043B822F823E065F8E8F8F7
:103FB00007C983484200A30084006329A27A62B340
:103FC000A2CB62D302BB828A8339A400E500E5005C
:103FD000E508C46064D844F824F823F802F883881C
:103FE000DBC6FFFFFFFFFFFFFFFFFFFFFFFFFFFF3E
:103FF000FFFF3DE7505B083123E843F844F065F8E4
:1040000009F9ABF989D10689A34842180200420098
:1040100061008200620062008300A320C450A58872
:1040200085D865F844F844F823F823F803D08210C3
:10403000C7295DEFFFFFFFFFFFFFFFFFFFFFFFFF50
:10404000FFFFFFFFFFFF6C32A53802D823F865F8A9
:1040500066F8A7F84AF90CFA4DFA4CEA0BD2A9B95E
:1040600068B147A927B107B907D1E7E8C7F8A7F8AA
:1040700065F865F844F823F803F802D0A328050989
:10408000C408EC5AFFFFFFFFFFFFFFFFFFFFFFFF2A
:10409000FFFFFFFFFBDE0519C400A741E6C003F8E0
:1040A00086F8A7F887F886F8C7F829F98AF9ABF9EE
:1040B000ABF98BF96AF929F908F9C7F8A6F886F877
:1040C00065F864F823F802F006B12529E400E4104D
:1040D00025192519149DFFFFFFFFFFFFFFFFFFFFBD
:1040E000FFFFFFFF96AD620082083595BACE8BA226
:1040F00044D025F887F8A7F8C7F8A7F887F886F816
:1041000086F886F887F8A7F8A7F8A6F885F865F87E
:1041100064F824F064B80D93BBB6CF638308041130
:10412000E4106621493A5DEFFFFFFFFFFFFFFFFF4D
:10413000FFFFFFFFD3944200E410BBCEFFFFBEE7BA
:1041400076B5CCAA07C145E045F846F866F886F88A
:1041500086F886F886F865F845F865F865E844D08D
:1041600043A8018882903CD7FFEF5595830804113E
:10417000041105194619B394FFFFFFFFFFFFFFFF6E
:10418000FFFFFFFFB394410086215DDFFFFFFFFFCC
:10419000FFFFDFE77AC6D3B44EB32AC268D1E6E0A8
:1041A000A6E8A5E8A5E8E6D888C906A922A802A835
:1041B00000A000C800D8F7E5FFE7F8ADC410E41090
:1041C0000411E41005118B4AFFFFFFFFFFFFFFFF03
:1041D000FFFFFFFF55A54100A7295DDFFFF7FFFFA8
:1041E000FFFFFFFFFFFFFFFFFFEF7DDFDBCE59CEBD
:1041F000F8CDD7CDF7C579CEFBBEABA203F045F81D
:1042000042D043E800F072D4FFDF39AEE410E4108E
:104210000411E41005118729FFFFFFFFFFFFFFFFD7
:10422000FFFFFFFF59CE830846211CD7FFF7FFFF92
:10423000FFFFFFFFFFFFFFFFFFFFFFFFFFFFFFFF8E
:10424000FFFFFFFFFFFFFFFFFFEF8BBA04F845F80A
:1042500062E044F000F88EDBFFDFF8A5C410E41044
:10426000E4100411E4102519FFFFFFFFFFFFFFFF1B
:10427000FFFFFFFFBEF78729830839B6FFF7DFF797
:10428000FFFFFFFFFFFFFFFFFFFFFFFFFFFFFFFF3E
:10429000FFFFFFFFFFFFFFFFBEE74ABA03F845F845
:1042A00064F844F800F86EE3FFD7F48C8308041137
:1042B000E410E410E4100519FFFFFFFFFFFFFFFF0C
:1042C000FFFFFFFFFFFFEF7300007284FFEFBEEF01
:1042D000DFFFFFFFFFFFFFFFFFFFFFFFFFFFFFFF0E
:1042E000FFFFFFFFFFFFFFFFDFE78BBA03F845F893
:1042F00045F823F800F8D3D4FFD74E5B2100293AC4
:1043000055A58308C4102519FFFFFFFFFFFFFFFF1E
:10431000FFFFFFFFFFFFFBDEA308E8319EDF9EE704
:10432000BFEFFFFFFFFFFFFFFFFFFFFFFFFFFFFFED
:10433000FFFFFFFFFFFFFFFFFFF751BC02E003F8A5
:1043400003F043E0ECC27ECFFCBE46212100D394B3
:10435000FFFF518400008729FFFFFFFFFFFFFFFFE2
:10436000FFFFFFFFFFFFFFFF51840000F48CFFEF12
:104370009EE7BFEFDFFFFFFFFFFFFFFFFFFFFFFF36
:10438000FFFFFFFFFFFFFFFFFFFF3DDF55BD52BCFB
:1043900072BCB7B55DC7FFDFF06B0000093ABFF72D
:1043A000FFFFFFFF149D55A5FFFFFFFFFFFFFFFF6E
:1043B000FFFFFFFFFFFFFFFFFFFFAC4AA408BBBEEC
:1043C000DFE77EE7BEEFDFF7DFFFFFFFFFFFFFFF67
:1043D000FFFFFFFFFFFFFFFFDFFFDFF7FFEFDFDF85
:1043E000BFD79ED7DFDFD8A583082611DBD6FFFF16
:1043F000FFFFFFFFFFFFFFFFFFFFFFFFFFFFFFFFCD
:10440000FFFFFFFFFFFFFFFF79EE8BDC2131A921CA
:104410003DCFBFDF7EDF9EE7BEEFBFEFDFF7DFF709
:10442000DFF7DFF7DFF7BFEFBEEF9EE77EDF5ED798
:104430005ED7DFDF9AB626194208EDA3BFFFFFFF64
:10444000FFFFFFFFFFFFFFFFFFFFFFFFFFFFFFFF7C
:10445000FFFFFFFFFFFF74DDC0DB00FE42EE024204
:1044600089217BB6DFDF7ED77EDF7EDF9EE79EE79A
:104470009EE79EE79EE77EDF7EDF5DD75DD79EDF0E
:10448000FFE7F8A50711E31802C560FDE6D3DBEEF0
:10449000FFFFFFFFFFFFFFFFFFFFFFFFFFFFFFFF2C
:1044A000FFFFFFFF9EF784BAC1FC42FE82FEA2FE20
:1044B0008183452174745EC7DFDF7ED75ED75DD709
:1044C0005ED75ED75DD75DD75ED79EDFFFE73DC77E
:1044D000F1638408425226E629FF86FEE0F36AC3B0
:1044E000FFFFFFFFFFFFFFFFFFFFFFFFFFFFFFFFDC
:1044F000FFFFFFFF18DEC1D2A2FD22FE42FE42FEF8
:1045000062FEE2D4416A494253743BA63EC7BFD71C
:10451000BFD7BFD7BFDFBFD73EC71AA6F263A72951
:10452000824122B462FE83FEAAFE0FFF67FD63BADA
:104530003CEFFFFFFFFFFFFFFFFFFFFFFFFFFFFF5E
:10454000FFFFFFFF9AE680D221FDC2FDE2F5C2F532
:1045500082F582FD62FD61DC219B846AE96A2C633D
:10456000AF6311746E632C63895A0452817AC2CB93
:10457000E2FC62FD82FDC2FDC2FDE4FD24FD62CAD3
:104580001CE7FFFFFFFFFFFFFFFFFFFFFFFFFFFF36
:10459000FFFFFFFFFFFFB1CC81D2C0F3C1FC02FDE2
:1045A00002FDE2FCC2FCC2FC81FC80FBC0C9A4810C
:1045B00035AD59CE719C218100DAA1FB82FCA2FCB1
:1045C00082FCA2FC02FD22FDE2FC00FC60DA90CC41
:1045D000FFFFFFFFFFFFFFFFFFFFFFFFFFFFFFFFEB
:1045E000FFFFFFFFFFFFFFFF59DE0DC406CBE4D244
:1045F00003DB03DBE3DAC3D2A4C209B3D2BC9EF768
:10460000FFFFFFFFFFFFFBE60EB4A6BA83D2E3E293
:1046100002EB22EB22E303DBE4D26AC3B6D5FFFF51
:10462000FFFFFFFFFFFFFFFF000000000000000092
:104630000000000000000000000000080808080852
:10464000080800001818000000486C241200000040
:1046500000000000000000000000002424247F125D
:1046600012127F12121200000000081C2A2A0A0CE3
:104670001828282A2A1C08080000002225151515CC
:104680002A585454542200000000000C1212120A3E
:1046900076252911916E0000000606040300000033
:1046A0000000000000000000004020101008080872
:1046B000080808101020400000020408081010101C
:1046C00010101008080402000000000008086B1C0D
:1046D0001C6B080800000000000000000808080823
:1046E0007F0808080800000000000000000000002B
:1046F00000000000060604030000000000000000A7
:10470000FE000000000000000000000000000000AB
:10471000000000000606000000008040402020103D
:10472000100808040402020000000018244242425B
:104730004242424224180000000000080E08080807
:1047400008080808083E00000000003C42424220E1
:1047500020100804427E00000000003C4242201865
:1047600020404042221C0000000000203028242469
:1047700022227E20207800000000007E0202021A21
:1047800026404042221C0000000000382402021A89
:1047900026424242241800000000007E222210100F
:1047A00008080808080800000000003C42424224B3
:1047B00018244242423C00000000001824424242B9
:1047C00064584040241C000000000000000018183D
:1047D00000000000181800000000000000000008A1
:1047E0000000000000080804000000402010080439
:1047F00002040810204000000000000000007F00BC
:1048000000007F00000000000000000204081020EB
:1048100040201008040200000000003C42424640D4
:1048200020101000181800000000001C225A5555D6
:1048300055552D42221C00000000000808181414D1
:10484000243C224242E700000000001F2222221ED8
:1048500022424242221F00000000007C424201012D
:1048600001010142221C00000000001F22424242BE
:1048700042424242221F00000000003F4212121E2C
:1048800012120242423F00000000003F4212121E7C
:1048900012120202020700000000003C2222010165
:1048A00001712122221C0000000000E74242424226
:1048B0007E42424242E700000000003E080808082D
:1048C00008080808083E00000000007C10101010C6
:1048D000101010101010110F0000007722120A0E95
:1048E0000A121222227700000000000702020202D0
:1048F00002020202427F00000000007736363636A0
:104900002A2A2A2A2A6B0000000000E346464A4A67
:1049100052525262624700000000001C2241414195
:1049200041414141221C00000000003F42424242FE
:104930003E020202020700000000001C2241414129
:1049400041414D53321C60000000003F4242423E54
:104950001212222242C700000000007C42420204E0
:1049600018204042423E00000000007F490808082D
:1049700008080808081C0000000000E74242424204
:1049800042424242423C0000000000E742422224F0
:1049900024141418080800000000006B4949494914
:1049A0005555362222220000000000E74224241838
:1049B0001818242442E70000000000772222141473
:1049C00008080808081C00000000007E21201010C4
:1049D00008040442423F000000780808080808085C
:1049E0000808080808087800000002020404080803
:1049F0000810102020204040001E10101010101031
:104A00001010101010101E000038440000000000AC
:104A10000000000000000000000000000000000096
:104A200000000000000000FF000608000000000079
:104A30000000000000000000000000000000003C3A
:104A40004278444242FC0000000000030202021AC5
:104A500026424242261A00000000000000000038F2
:104A600044020202443800000000006040404078E8
:104A70004442424264D80000000000000000003CB4
:104A8000427E0202423C0000000000F08808087EDE
:104A900008080808083E0000000000000000007C34
:104AA00022221C023C42423C000000030202023A65
:104AB0004642424242E700000000000C0C00000E9B
:104AC00008080808083E00000000003030000038E8
:104AD000202020202020221E00000003020202725B
:104AE000120A1612227700000000000E08080808BB
:104AF00008080808083E0000000000000000007FD1
:104B00009292929292B70000000000000000003BD9
:104B10004642424242E70000000000000000003C24
:104B200042424242423C0000000000000000001BE4
:104B300026424242221E02070000000000000078C8
:104B400044424242447840E0000000000000007708
:104B50004C040404041F0000000000000000007C5E
:104B600042023C40423E0000000000000008083EB7
:104B7000080808080830000000000000000000637A
:104B80004242424262DC000000000000000000E7F8
:104B9000422424140808000000000000000000EB7C
:104BA000494955552222000000000000000000760F
:104BB00024181818246E000000000000000000E710
:104BC0004224241418080807000000000000007E9A
:104BD00022100808447E000000C020202020201061
:104BE000202020202020C0001010101010101010C5
:104BF00010101010101010100006080808080810F7
:104C000008080808080806000C32C200000000006E
:104C10000000000000000000384C000800000020E8
:104C2000CC030000E6070008F84D0008CC03002084
:104C3000AC430100542E0008022B01250AD7233C67
:104C400063A040D7803F3333333F2A80041952D9C1
:104C500004080D1A1080010CF0FFFF0F30800104D2
:104C60000419246A070C09124809100401131A01D7
:104C70001914FFFF011A03082904E90C3381812A62
:104C800003041D1CFCFFFFC019CF5B03C0282AC012
:104C90000C49041BFFFF4C22411A0468230E711BB0
:104CA00007815A14010760100B010E1898011C04AB
:104CB000E001181927F11A08C4231F304A0C0468B0
:104CC00009100C30FE3F0C30041069041BC00C2886
:104CD0001E0D3030060E049C0C3010044B18860458
:104CE000101208060D300C860D3006EE0F3002FC57
:104CF0000D30015B0CF040193C2A0F081A109ED1B0
:104D0000299019CB4908890417E0FFFF0360C00907
:104D1000130409161C59181A010429441A08045AC4
:104D2000100419F8130138041780FF1F2603C0FF71
:104D3000FF071A8004293D326032181A0C135A03F7
:104D40000419A41C800108045E1CFCFFFF3F10092D
:104D500028041AFC0432E062405A80026DFC1F8471
:104D60001002290C69184DF80F080804128023FF5F
:104D70007F290C490E2D8410A22045280FFE3F02EA
:104D800020F22702200220FA2F22210228091229CC
:104D900012290A2E02201AC95E99081650804080F6
:104DA00040195213FE1F120812042C02800162697E
:104DB0007829021AA0A518161008B8080F090809C2
:104DC0000808BF0808091C092C080A78CA117901CB
:104DD0002A04023CC87F3F08180BA83F18210C1179
:104DE0000B12080A0E061A0A8A1164602D010203CA
:084DF000040425060708090070
:040000050800018965
:00000001FF
